{
  "contractName": "Berenu",
  "abi": [
    {
      "inputs": [
        {
          "internalType": "string",
          "name": "_name",
          "type": "string"
        },
        {
          "internalType": "string",
          "name": "_symbol",
          "type": "string"
        }
      ],
      "stateMutability": "nonpayable",
      "type": "constructor"
    },
    {
      "anonymous": false,
      "inputs": [
        {
          "indexed": true,
          "internalType": "address",
          "name": "owner",
          "type": "address"
        },
        {
          "indexed": true,
          "internalType": "address",
          "name": "approved",
          "type": "address"
        },
        {
          "indexed": true,
          "internalType": "uint256",
          "name": "tokenId",
          "type": "uint256"
        }
      ],
      "name": "Approval",
      "type": "event"
    },
    {
      "anonymous": false,
      "inputs": [
        {
          "indexed": true,
          "internalType": "address",
          "name": "owner",
          "type": "address"
        },
        {
          "indexed": true,
          "internalType": "address",
          "name": "operator",
          "type": "address"
        },
        {
          "indexed": false,
          "internalType": "bool",
          "name": "approved",
          "type": "bool"
        }
      ],
      "name": "ApprovalForAll",
      "type": "event"
    },
    {
      "anonymous": false,
      "inputs": [
        {
          "indexed": true,
          "internalType": "address",
          "name": "previousOwner",
          "type": "address"
        },
        {
          "indexed": true,
          "internalType": "address",
          "name": "newOwner",
          "type": "address"
        }
      ],
      "name": "OwnershipTransferred",
      "type": "event"
    },
    {
      "anonymous": false,
      "inputs": [
        {
          "indexed": true,
          "internalType": "address",
          "name": "from",
          "type": "address"
        },
        {
          "indexed": true,
          "internalType": "address",
          "name": "to",
          "type": "address"
        },
        {
          "indexed": true,
          "internalType": "uint256",
          "name": "tokenId",
          "type": "uint256"
        }
      ],
      "name": "Transfer",
      "type": "event"
    },
    {
      "inputs": [
        {
          "internalType": "address",
          "name": "to",
          "type": "address"
        },
        {
          "internalType": "uint256",
          "name": "tokenId",
          "type": "uint256"
        }
      ],
      "name": "approve",
      "outputs": [],
      "stateMutability": "nonpayable",
      "type": "function"
    },
    {
      "inputs": [
        {
          "internalType": "address",
          "name": "owner",
          "type": "address"
        }
      ],
      "name": "balanceOf",
      "outputs": [
        {
          "internalType": "uint256",
          "name": "",
          "type": "uint256"
        }
      ],
      "stateMutability": "view",
      "type": "function"
    },
    {
      "inputs": [],
      "name": "baseURI",
      "outputs": [
        {
          "internalType": "string",
          "name": "",
          "type": "string"
        }
      ],
      "stateMutability": "view",
      "type": "function"
    },
    {
      "inputs": [],
      "name": "currentSupply",
      "outputs": [
        {
          "internalType": "uint256",
          "name": "",
          "type": "uint256"
        }
      ],
      "stateMutability": "view",
      "type": "function"
    },
    {
      "inputs": [
        {
          "internalType": "uint256",
          "name": "tokenId",
          "type": "uint256"
        }
      ],
      "name": "getApproved",
      "outputs": [
        {
          "internalType": "address",
          "name": "",
          "type": "address"
        }
      ],
      "stateMutability": "view",
      "type": "function"
    },
    {
      "inputs": [
        {
          "internalType": "address",
          "name": "owner",
          "type": "address"
        },
        {
          "internalType": "address",
          "name": "operator",
          "type": "address"
        }
      ],
      "name": "isApprovedForAll",
      "outputs": [
        {
          "internalType": "bool",
          "name": "",
          "type": "bool"
        }
      ],
      "stateMutability": "view",
      "type": "function"
    },
    {
      "inputs": [],
      "name": "maxSupply",
      "outputs": [
        {
          "internalType": "uint256",
          "name": "",
          "type": "uint256"
        }
      ],
      "stateMutability": "view",
      "type": "function"
    },
    {
      "inputs": [],
      "name": "name",
      "outputs": [
        {
          "internalType": "string",
          "name": "",
          "type": "string"
        }
      ],
      "stateMutability": "view",
      "type": "function"
    },
    {
      "inputs": [],
      "name": "owner",
      "outputs": [
        {
          "internalType": "address",
          "name": "",
          "type": "address"
        }
      ],
      "stateMutability": "view",
      "type": "function"
    },
    {
      "inputs": [
        {
          "internalType": "uint256",
          "name": "tokenId",
          "type": "uint256"
        }
      ],
      "name": "ownerOf",
      "outputs": [
        {
          "internalType": "address",
          "name": "",
          "type": "address"
        }
      ],
      "stateMutability": "view",
      "type": "function"
    },
    {
      "inputs": [],
      "name": "price",
      "outputs": [
        {
          "internalType": "uint256",
          "name": "",
          "type": "uint256"
        }
      ],
      "stateMutability": "view",
      "type": "function"
    },
    {
      "inputs": [],
      "name": "renounceOwnership",
      "outputs": [],
      "stateMutability": "nonpayable",
      "type": "function"
    },
    {
      "inputs": [
        {
          "internalType": "address",
          "name": "from",
          "type": "address"
        },
        {
          "internalType": "address",
          "name": "to",
          "type": "address"
        },
        {
          "internalType": "uint256",
          "name": "tokenId",
          "type": "uint256"
        }
      ],
      "name": "safeTransferFrom",
      "outputs": [],
      "stateMutability": "nonpayable",
      "type": "function"
    },
    {
      "inputs": [
        {
          "internalType": "address",
          "name": "from",
          "type": "address"
        },
        {
          "internalType": "address",
          "name": "to",
          "type": "address"
        },
        {
          "internalType": "uint256",
          "name": "tokenId",
          "type": "uint256"
        },
        {
          "internalType": "bytes",
          "name": "_data",
          "type": "bytes"
        }
      ],
      "name": "safeTransferFrom",
      "outputs": [],
      "stateMutability": "nonpayable",
      "type": "function"
    },
    {
      "inputs": [
        {
          "internalType": "address",
          "name": "operator",
          "type": "address"
        },
        {
          "internalType": "bool",
          "name": "approved",
          "type": "bool"
        }
      ],
      "name": "setApprovalForAll",
      "outputs": [],
      "stateMutability": "nonpayable",
      "type": "function"
    },
    {
      "inputs": [
        {
          "internalType": "bytes4",
          "name": "interfaceId",
          "type": "bytes4"
        }
      ],
      "name": "supportsInterface",
      "outputs": [
        {
          "internalType": "bool",
          "name": "",
          "type": "bool"
        }
      ],
      "stateMutability": "view",
      "type": "function"
    },
    {
      "inputs": [],
      "name": "symbol",
      "outputs": [
        {
          "internalType": "string",
          "name": "",
          "type": "string"
        }
      ],
      "stateMutability": "view",
      "type": "function"
    },
    {
      "inputs": [
        {
          "internalType": "uint256",
          "name": "index",
          "type": "uint256"
        }
      ],
      "name": "tokenByIndex",
      "outputs": [
        {
          "internalType": "uint256",
          "name": "",
          "type": "uint256"
        }
      ],
      "stateMutability": "view",
      "type": "function"
    },
    {
      "inputs": [
        {
          "internalType": "address",
          "name": "owner",
          "type": "address"
        },
        {
          "internalType": "uint256",
          "name": "index",
          "type": "uint256"
        }
      ],
      "name": "tokenOfOwnerByIndex",
      "outputs": [
        {
          "internalType": "uint256",
          "name": "",
          "type": "uint256"
        }
      ],
      "stateMutability": "view",
      "type": "function"
    },
    {
      "inputs": [
        {
          "internalType": "uint256",
          "name": "tokenId",
          "type": "uint256"
        }
      ],
      "name": "tokenURI",
      "outputs": [
        {
          "internalType": "string",
          "name": "",
          "type": "string"
        }
      ],
      "stateMutability": "view",
      "type": "function"
    },
    {
      "inputs": [],
      "name": "totalSupply",
      "outputs": [
        {
          "internalType": "uint256",
          "name": "",
          "type": "uint256"
        }
      ],
      "stateMutability": "view",
      "type": "function"
    },
    {
      "inputs": [
        {
          "internalType": "address",
          "name": "from",
          "type": "address"
        },
        {
          "internalType": "address",
          "name": "to",
          "type": "address"
        },
        {
          "internalType": "uint256",
          "name": "tokenId",
          "type": "uint256"
        }
      ],
      "name": "transferFrom",
      "outputs": [],
      "stateMutability": "nonpayable",
      "type": "function"
    },
    {
      "inputs": [
        {
          "internalType": "address",
          "name": "newOwner",
          "type": "address"
        }
      ],
      "name": "transferOwnership",
      "outputs": [],
      "stateMutability": "nonpayable",
      "type": "function"
    },
    {
      "inputs": [],
      "name": "hello",
      "outputs": [
        {
          "internalType": "string",
          "name": "",
          "type": "string"
        }
      ],
      "stateMutability": "pure",
      "type": "function"
    },
    {
      "inputs": [],
      "name": "mint",
      "outputs": [],
      "stateMutability": "payable",
      "type": "function"
    }
  ],
  "bytecode": "0x60c060405267016345785d8a0000608090815250600560a0908152503480156200002857600080fd5b5060405162003c2338038062003c2383398181016040528101906200004e9190620003cf565b818181600090805190602001906200006892919062000182565b5080600190805190602001906200008192919062000182565b505050620000a462000098620000b460201b60201c565b620000bc60201b60201c565b6000600b819055505050620004b8565b600033905090565b6000600a60009054906101000a900473ffffffffffffffffffffffffffffffffffffffff16905081600a60006101000a81548173ffffffffffffffffffffffffffffffffffffffff021916908373ffffffffffffffffffffffffffffffffffffffff1602179055508173ffffffffffffffffffffffffffffffffffffffff168173ffffffffffffffffffffffffffffffffffffffff167f8be0079c531659141344cd1fd0a4f28419497f9722a3daafe3b4186f6b6457e060405160405180910390a35050565b828054620001909062000483565b90600052602060002090601f016020900481019282620001b4576000855562000200565b82601f10620001cf57805160ff191683800117855562000200565b8280016001018555821562000200579182015b82811115620001ff578251825591602001919060010190620001e2565b5b5090506200020f919062000213565b5090565b5b808211156200022e57600081600090555060010162000214565b5090565b6000604051905090565b600080fd5b600080fd5b600080fd5b600080fd5b6000601f19601f8301169050919050565b7f4e487b7100000000000000000000000000000000000000000000000000000000600052604160045260246000fd5b6200029b8262000250565b810181811067ffffffffffffffff82111715620002bd57620002bc62000261565b5b80604052505050565b6000620002d262000232565b9050620002e0828262000290565b919050565b600067ffffffffffffffff82111562000303576200030262000261565b5b6200030e8262000250565b9050602081019050919050565b60005b838110156200033b5780820151818401526020810190506200031e565b838111156200034b576000848401525b50505050565b6000620003686200036284620002e5565b620002c6565b9050828152602081018484840111156200038757620003866200024b565b5b620003948482856200031b565b509392505050565b600082601f830112620003b457620003b362000246565b5b8151620003c684826020860162000351565b91505092915050565b60008060408385031215620003e957620003e86200023c565b5b600083015167ffffffffffffffff8111156200040a576200040962000241565b5b62000418858286016200039c565b925050602083015167ffffffffffffffff8111156200043c576200043b62000241565b5b6200044a858286016200039c565b9150509250929050565b7f4e487b7100000000000000000000000000000000000000000000000000000000600052602260045260246000fd5b600060028204905060018216806200049c57607f821691505b602082108103620004b257620004b162000454565b5b50919050565b60805160a051613737620004ec600039600081816108970152610fed0152600081816109000152610eaa01526137376000f3fe6080604052600436106101665760003560e01c80636c0360eb116100d1578063a035b1fe1161008a578063c87b56dd11610064578063c87b56dd1461051f578063d5abeb011461055c578063e985e9c514610587578063f2fde38b146105c457610166565b8063a035b1fe146104a2578063a22cb465146104cd578063b88d4fde146104f657610166565b80636c0360eb146103a257806370a08231146103cd578063715018a61461040a578063771282f6146104215780638da5cb5b1461044c57806395d89b411461047757610166565b806319ff1d211161012357806319ff1d211461026e57806323b872dd146102995780632f745c59146102c257806342842e0e146102ff5780634f6ccce7146103285780636352211e1461036557610166565b806301ffc9a71461016b57806306fdde03146101a8578063081812fc146101d3578063095ea7b3146102105780631249c58b1461023957806318160ddd14610243575b600080fd5b34801561017757600080fd5b50610192600480360381019061018d919061236d565b6105ed565b60405161019f91906123b5565b60405180910390f35b3480156101b457600080fd5b506101bd610667565b6040516101ca9190612469565b60405180910390f35b3480156101df57600080fd5b506101fa60048036038101906101f591906124c1565b6106f9565b604051610207919061252f565b60405180910390f35b34801561021c57600080fd5b5061023760048036038101906102329190612576565b61077e565b005b610241610895565b005b34801561024f57600080fd5b50610258610988565b60405161026591906125c5565b60405180910390f35b34801561027a57600080fd5b50610283610995565b6040516102909190612469565b60405180910390f35b3480156102a557600080fd5b506102c060048036038101906102bb91906125e0565b6109d2565b005b3480156102ce57600080fd5b506102e960048036038101906102e49190612576565b610a32565b6040516102f691906125c5565b60405180910390f35b34801561030b57600080fd5b50610326600480360381019061032191906125e0565b610ad7565b005b34801561033457600080fd5b5061034f600480360381019061034a91906124c1565b610af7565b60405161035c91906125c5565b60405180910390f35b34801561037157600080fd5b5061038c600480360381019061038791906124c1565b610b68565b604051610399919061252f565b60405180910390f35b3480156103ae57600080fd5b506103b7610c19565b6040516103c49190612469565b60405180910390f35b3480156103d957600080fd5b506103f460048036038101906103ef9190612633565b610ca7565b60405161040191906125c5565b60405180910390f35b34801561041657600080fd5b5061041f610d5e565b005b34801561042d57600080fd5b50610436610de6565b60405161044391906125c5565b60405180910390f35b34801561045857600080fd5b50610461610dec565b60405161046e919061252f565b60405180910390f35b34801561048357600080fd5b5061048c610e16565b6040516104999190612469565b60405180910390f35b3480156104ae57600080fd5b506104b7610ea8565b6040516104c491906125c5565b60405180910390f35b3480156104d957600080fd5b506104f460048036038101906104ef919061268c565b610ecc565b005b34801561050257600080fd5b5061051d60048036038101906105189190612801565b610ee2565b005b34801561052b57600080fd5b50610546600480360381019061054191906124c1565b610f44565b6040516105539190612469565b60405180910390f35b34801561056857600080fd5b50610571610feb565b60405161057e91906125c5565b60405180910390f35b34801561059357600080fd5b506105ae60048036038101906105a99190612884565b61100f565b6040516105bb91906123b5565b60405180910390f35b3480156105d057600080fd5b506105eb60048036038101906105e69190612633565b6110a3565b005b60007f780e9d63000000000000000000000000000000000000000000000000000000007bffffffffffffffffffffffffffffffffffffffffffffffffffffffff1916827bffffffffffffffffffffffffffffffffffffffffffffffffffffffff19161480610660575061065f8261119a565b5b9050919050565b606060008054610676906128f3565b80601f01602080910402602001604051908101604052809291908181526020018280546106a2906128f3565b80156106ef5780601f106106c4576101008083540402835291602001916106ef565b820191906000526020600020905b8154815290600101906020018083116106d257829003601f168201915b5050505050905090565b60006107048261127c565b610743576040517f08c379a000000000000000000000000000000000000000000000000000000000815260040161073a90612996565b60405180910390fd5b6004600083815260200190815260200160002060009054906101000a900473ffffffffffffffffffffffffffffffffffffffff169050919050565b600061078982610b68565b90508073ffffffffffffffffffffffffffffffffffffffff168373ffffffffffffffffffffffffffffffffffffffff16036107f9576040517f08c379a00000000000000000000000000000000000000000000000000000000081526004016107f090612a28565b60405180910390fd5b8073ffffffffffffffffffffffffffffffffffffffff166108186112e8565b73ffffffffffffffffffffffffffffffffffffffff1614806108475750610846816108416112e8565b61100f565b5b610886576040517f08c379a000000000000000000000000000000000000000000000000000000000815260040161087d90612aba565b60405180910390fd5b61089083836112f0565b505050565b7f00000000000000000000000000000000000000000000000000000000000000006108be610988565b106108fe576040517f08c379a00000000000000000000000000000000000000000000000000000000081526004016108f590612b4c565b60405180910390fd5b7f00000000000000000000000000000000000000000000000000000000000000003414610960576040517f08c379a000000000000000000000000000000000000000000000000000000000815260040161095790612bb8565b60405180910390fd5b6001600b60008282546109739190612c07565b9250508190555061098633600b546113a9565b565b6000600880549050905090565b60606040518060400160405280600581526020017f48454c4c4f000000000000000000000000000000000000000000000000000000815250905090565b6109e36109dd6112e8565b82611582565b610a22576040517f08c379a0000000000000000000000000000000000000000000000000000000008152600401610a1990612ccf565b60405180910390fd5b610a2d838383611660565b505050565b6000610a3d83610ca7565b8210610a7e576040517f08c379a0000000000000000000000000000000000000000000000000000000008152600401610a7590612d61565b60405180910390fd5b600660008473ffffffffffffffffffffffffffffffffffffffff1673ffffffffffffffffffffffffffffffffffffffff168152602001908152602001600020600083815260200190815260200160002054905092915050565b610af283838360405180602001604052806000815250610ee2565b505050565b6000610b01610988565b8210610b42576040517f08c379a0000000000000000000000000000000000000000000000000000000008152600401610b3990612df3565b60405180910390fd5b60088281548110610b5657610b55612e13565b5b90600052602060002001549050919050565b6000806002600084815260200190815260200160002060009054906101000a900473ffffffffffffffffffffffffffffffffffffffff169050600073ffffffffffffffffffffffffffffffffffffffff168173ffffffffffffffffffffffffffffffffffffffff1603610c10576040517f08c379a0000000000000000000000000000000000000000000000000000000008152600401610c0790612eb4565b60405180910390fd5b80915050919050565b600c8054610c26906128f3565b80601f0160208091040260200160405190810160405280929190818152602001828054610c52906128f3565b8015610c9f5780601f10610c7457610100808354040283529160200191610c9f565b820191906000526020600020905b815481529060010190602001808311610c8257829003601f168201915b505050505081565b60008073ffffffffffffffffffffffffffffffffffffffff168273ffffffffffffffffffffffffffffffffffffffff1603610d17576040517f08c379a0000000000000000000000000000000000000000000000000000000008152600401610d0e90612f46565b60405180910390fd5b600360008373ffffffffffffffffffffffffffffffffffffffff1673ffffffffffffffffffffffffffffffffffffffff168152602001908152602001600020549050919050565b610d666112e8565b73ffffffffffffffffffffffffffffffffffffffff16610d84610dec565b73ffffffffffffffffffffffffffffffffffffffff1614610dda576040517f08c379a0000000000000000000000000000000000000000000000000000000008152600401610dd190612fb2565b60405180910390fd5b610de460006118c6565b565b600b5481565b6000600a60009054906101000a900473ffffffffffffffffffffffffffffffffffffffff16905090565b606060018054610e25906128f3565b80601f0160208091040260200160405190810160405280929190818152602001828054610e51906128f3565b8015610e9e5780601f10610e7357610100808354040283529160200191610e9e565b820191906000526020600020905b815481529060010190602001808311610e8157829003601f168201915b5050505050905090565b7f000000000000000000000000000000000000000000000000000000000000000081565b610ede610ed76112e8565b838361198c565b5050565b610ef3610eed6112e8565b83611582565b610f32576040517f08c379a0000000000000000000000000000000000000000000000000000000008152600401610f2990612ccf565b60405180910390fd5b610f3e84848484611af8565b50505050565b6060610f4f8261127c565b610f8e576040517f08c379a0000000000000000000000000000000000000000000000000000000008152600401610f8590613044565b60405180910390fd5b6000610f98611b54565b90506000815111610fb85760405180602001604052806000815250610fe3565b80610fc284611b6b565b604051602001610fd39291906130a0565b6040516020818303038152906040525b915050919050565b7f000000000000000000000000000000000000000000000000000000000000000081565b6000600560008473ffffffffffffffffffffffffffffffffffffffff1673ffffffffffffffffffffffffffffffffffffffff16815260200190815260200160002060008373ffffffffffffffffffffffffffffffffffffffff1673ffffffffffffffffffffffffffffffffffffffff16815260200190815260200160002060009054906101000a900460ff16905092915050565b6110ab6112e8565b73ffffffffffffffffffffffffffffffffffffffff166110c9610dec565b73ffffffffffffffffffffffffffffffffffffffff161461111f576040517f08c379a000000000000000000000000000000000000000000000000000000000815260040161111690612fb2565b60405180910390fd5b600073ffffffffffffffffffffffffffffffffffffffff168173ffffffffffffffffffffffffffffffffffffffff160361118e576040517f08c379a000000000000000000000000000000000000000000000000000000000815260040161118590613136565b60405180910390fd5b611197816118c6565b50565b60007f80ac58cd000000000000000000000000000000000000000000000000000000007bffffffffffffffffffffffffffffffffffffffffffffffffffffffff1916827bffffffffffffffffffffffffffffffffffffffffffffffffffffffff1916148061126557507f5b5e139f000000000000000000000000000000000000000000000000000000007bffffffffffffffffffffffffffffffffffffffffffffffffffffffff1916827bffffffffffffffffffffffffffffffffffffffffffffffffffffffff1916145b80611275575061127482611ccb565b5b9050919050565b60008073ffffffffffffffffffffffffffffffffffffffff166002600084815260200190815260200160002060009054906101000a900473ffffffffffffffffffffffffffffffffffffffff1673ffffffffffffffffffffffffffffffffffffffff1614159050919050565b600033905090565b816004600083815260200190815260200160002060006101000a81548173ffffffffffffffffffffffffffffffffffffffff021916908373ffffffffffffffffffffffffffffffffffffffff160217905550808273ffffffffffffffffffffffffffffffffffffffff1661136383610b68565b73ffffffffffffffffffffffffffffffffffffffff167f8c5be1e5ebec7d5bd14f71427d1e84f3dd0314c0f7b2291e5b200ac8c7c3b92560405160405180910390a45050565b600073ffffffffffffffffffffffffffffffffffffffff168273ffffffffffffffffffffffffffffffffffffffff1603611418576040517f08c379a000000000000000000000000000000000000000000000000000000000815260040161140f906131a2565b60405180910390fd5b6114218161127c565b15611461576040517f08c379a00000000000000000000000000000000000000000000000000000000081526004016114589061320e565b60405180910390fd5b61146d60008383611d35565b6001600360008473ffffffffffffffffffffffffffffffffffffffff1673ffffffffffffffffffffffffffffffffffffffff16815260200190815260200160002060008282546114bd9190612c07565b92505081905550816002600083815260200190815260200160002060006101000a81548173ffffffffffffffffffffffffffffffffffffffff021916908373ffffffffffffffffffffffffffffffffffffffff160217905550808273ffffffffffffffffffffffffffffffffffffffff16600073ffffffffffffffffffffffffffffffffffffffff167fddf252ad1be2c89b69c2b068fc378daa952ba7f163c4a11628f55a4df523b3ef60405160405180910390a461157e60008383611e47565b5050565b600061158d8261127c565b6115cc576040517f08c379a00000000000000000000000000000000000000000000000000000000081526004016115c3906132a0565b60405180910390fd5b60006115d783610b68565b90508073ffffffffffffffffffffffffffffffffffffffff168473ffffffffffffffffffffffffffffffffffffffff1614806116195750611618818561100f565b5b8061165757508373ffffffffffffffffffffffffffffffffffffffff1661163f846106f9565b73ffffffffffffffffffffffffffffffffffffffff16145b91505092915050565b8273ffffffffffffffffffffffffffffffffffffffff1661168082610b68565b73ffffffffffffffffffffffffffffffffffffffff16146116d6576040517f08c379a00000000000000000000000000000000000000000000000000000000081526004016116cd90613332565b60405180910390fd5b600073ffffffffffffffffffffffffffffffffffffffff168273ffffffffffffffffffffffffffffffffffffffff1603611745576040517f08c379a000000000000000000000000000000000000000000000000000000000815260040161173c906133c4565b60405180910390fd5b611750838383611d35565b61175b6000826112f0565b6001600360008573ffffffffffffffffffffffffffffffffffffffff1673ffffffffffffffffffffffffffffffffffffffff16815260200190815260200160002060008282546117ab91906133e4565b925050819055506001600360008473ffffffffffffffffffffffffffffffffffffffff1673ffffffffffffffffffffffffffffffffffffffff16815260200190815260200160002060008282546118029190612c07565b92505081905550816002600083815260200190815260200160002060006101000a81548173ffffffffffffffffffffffffffffffffffffffff021916908373ffffffffffffffffffffffffffffffffffffffff160217905550808273ffffffffffffffffffffffffffffffffffffffff168473ffffffffffffffffffffffffffffffffffffffff167fddf252ad1be2c89b69c2b068fc378daa952ba7f163c4a11628f55a4df523b3ef60405160405180910390a46118c1838383611e47565b505050565b6000600a60009054906101000a900473ffffffffffffffffffffffffffffffffffffffff16905081600a60006101000a81548173ffffffffffffffffffffffffffffffffffffffff021916908373ffffffffffffffffffffffffffffffffffffffff1602179055508173ffffffffffffffffffffffffffffffffffffffff168173ffffffffffffffffffffffffffffffffffffffff167f8be0079c531659141344cd1fd0a4f28419497f9722a3daafe3b4186f6b6457e060405160405180910390a35050565b8173ffffffffffffffffffffffffffffffffffffffff168373ffffffffffffffffffffffffffffffffffffffff16036119fa576040517f08c379a00000000000000000000000000000000000000000000000000000000081526004016119f190613464565b60405180910390fd5b80600560008573ffffffffffffffffffffffffffffffffffffffff1673ffffffffffffffffffffffffffffffffffffffff16815260200190815260200160002060008473ffffffffffffffffffffffffffffffffffffffff1673ffffffffffffffffffffffffffffffffffffffff16815260200190815260200160002060006101000a81548160ff0219169083151502179055508173ffffffffffffffffffffffffffffffffffffffff168373ffffffffffffffffffffffffffffffffffffffff167f17307eab39ab6107e8899845ad3d59bd9653f200f220920489ca2b5937696c3183604051611aeb91906123b5565b60405180910390a3505050565b611b03848484611660565b611b0f84848484611e4c565b611b4e576040517f08c379a0000000000000000000000000000000000000000000000000000000008152600401611b45906134f6565b60405180910390fd5b50505050565b606060405180602001604052806000815250905090565b606060008203611bb2576040518060400160405280600181526020017f30000000000000000000000000000000000000000000000000000000000000008152509050611cc6565b600082905060005b60008214611be4578080611bcd90613516565b915050600a82611bdd919061358d565b9150611bba565b60008167ffffffffffffffff811115611c0057611bff6126d6565b5b6040519080825280601f01601f191660200182016040528015611c325781602001600182028036833780820191505090505b5090505b60008514611cbf57600182611c4b91906133e4565b9150600a85611c5a91906135be565b6030611c669190612c07565b60f81b818381518110611c7c57611c7b612e13565b5b60200101907effffffffffffffffffffffffffffffffffffffffffffffffffffffffffffff1916908160001a905350600a85611cb8919061358d565b9450611c36565b8093505050505b919050565b60007f01ffc9a7000000000000000000000000000000000000000000000000000000007bffffffffffffffffffffffffffffffffffffffffffffffffffffffff1916827bffffffffffffffffffffffffffffffffffffffffffffffffffffffff1916149050919050565b611d40838383611fd3565b600073ffffffffffffffffffffffffffffffffffffffff168373ffffffffffffffffffffffffffffffffffffffff1603611d8257611d7d81611fd8565b611dc1565b8173ffffffffffffffffffffffffffffffffffffffff168373ffffffffffffffffffffffffffffffffffffffff1614611dc057611dbf8382612021565b5b5b600073ffffffffffffffffffffffffffffffffffffffff168273ffffffffffffffffffffffffffffffffffffffff1603611e0357611dfe8161218e565b611e42565b8273ffffffffffffffffffffffffffffffffffffffff168273ffffffffffffffffffffffffffffffffffffffff1614611e4157611e40828261225f565b5b5b505050565b505050565b6000611e6d8473ffffffffffffffffffffffffffffffffffffffff166122de565b15611fc6578373ffffffffffffffffffffffffffffffffffffffff1663150b7a02611e966112e8565b8786866040518563ffffffff1660e01b8152600401611eb89493929190613644565b6020604051808303816000875af1925050508015611ef457506040513d601f19601f82011682018060405250810190611ef191906136a5565b60015b611f76573d8060008114611f24576040519150601f19603f3d011682016040523d82523d6000602084013e611f29565b606091505b506000815103611f6e576040517f08c379a0000000000000000000000000000000000000000000000000000000008152600401611f65906134f6565b60405180910390fd5b805181602001fd5b63150b7a0260e01b7bffffffffffffffffffffffffffffffffffffffffffffffffffffffff1916817bffffffffffffffffffffffffffffffffffffffffffffffffffffffff191614915050611fcb565b600190505b949350505050565b505050565b6008805490506009600083815260200190815260200160002081905550600881908060018154018082558091505060019003906000526020600020016000909190919091505550565b6000600161202e84610ca7565b61203891906133e4565b905060006007600084815260200190815260200160002054905081811461211d576000600660008673ffffffffffffffffffffffffffffffffffffffff1673ffffffffffffffffffffffffffffffffffffffff168152602001908152602001600020600084815260200190815260200160002054905080600660008773ffffffffffffffffffffffffffffffffffffffff1673ffffffffffffffffffffffffffffffffffffffff168152602001908152602001600020600084815260200190815260200160002081905550816007600083815260200190815260200160002081905550505b6007600084815260200190815260200160002060009055600660008573ffffffffffffffffffffffffffffffffffffffff1673ffffffffffffffffffffffffffffffffffffffff16815260200190815260200160002060008381526020019081526020016000206000905550505050565b600060016008805490506121a291906133e4565b90506000600960008481526020019081526020016000205490506000600883815481106121d2576121d1612e13565b5b9060005260206000200154905080600883815481106121f4576121f3612e13565b5b906000526020600020018190555081600960008381526020019081526020016000208190555060096000858152602001908152602001600020600090556008805480612243576122426136d2565b5b6001900381819060005260206000200160009055905550505050565b600061226a83610ca7565b905081600660008573ffffffffffffffffffffffffffffffffffffffff1673ffffffffffffffffffffffffffffffffffffffff168152602001908152602001600020600083815260200190815260200160002081905550806007600084815260200190815260200160002081905550505050565b6000808273ffffffffffffffffffffffffffffffffffffffff163b119050919050565b6000604051905090565b600080fd5b600080fd5b60007fffffffff0000000000000000000000000000000000000000000000000000000082169050919050565b61234a81612315565b811461235557600080fd5b50565b60008135905061236781612341565b92915050565b6000602082840312156123835761238261230b565b5b600061239184828501612358565b91505092915050565b60008115159050919050565b6123af8161239a565b82525050565b60006020820190506123ca60008301846123a6565b92915050565b600081519050919050565b600082825260208201905092915050565b60005b8381101561240a5780820151818401526020810190506123ef565b83811115612419576000848401525b50505050565b6000601f19601f8301169050919050565b600061243b826123d0565b61244581856123db565b93506124558185602086016123ec565b61245e8161241f565b840191505092915050565b600060208201905081810360008301526124838184612430565b905092915050565b6000819050919050565b61249e8161248b565b81146124a957600080fd5b50565b6000813590506124bb81612495565b92915050565b6000602082840312156124d7576124d661230b565b5b60006124e5848285016124ac565b91505092915050565b600073ffffffffffffffffffffffffffffffffffffffff82169050919050565b6000612519826124ee565b9050919050565b6125298161250e565b82525050565b60006020820190506125446000830184612520565b92915050565b6125538161250e565b811461255e57600080fd5b50565b6000813590506125708161254a565b92915050565b6000806040838503121561258d5761258c61230b565b5b600061259b85828601612561565b92505060206125ac858286016124ac565b9150509250929050565b6125bf8161248b565b82525050565b60006020820190506125da60008301846125b6565b92915050565b6000806000606084860312156125f9576125f861230b565b5b600061260786828701612561565b935050602061261886828701612561565b9250506040612629868287016124ac565b9150509250925092565b6000602082840312156126495761264861230b565b5b600061265784828501612561565b91505092915050565b6126698161239a565b811461267457600080fd5b50565b60008135905061268681612660565b92915050565b600080604083850312156126a3576126a261230b565b5b60006126b185828601612561565b92505060206126c285828601612677565b9150509250929050565b600080fd5b600080fd5b7f4e487b7100000000000000000000000000000000000000000000000000000000600052604160045260246000fd5b61270e8261241f565b810181811067ffffffffffffffff8211171561272d5761272c6126d6565b5b80604052505050565b6000612740612301565b905061274c8282612705565b919050565b600067ffffffffffffffff82111561276c5761276b6126d6565b5b6127758261241f565b9050602081019050919050565b82818337600083830152505050565b60006127a461279f84612751565b612736565b9050828152602081018484840111156127c0576127bf6126d1565b5b6127cb848285612782565b509392505050565b600082601f8301126127e8576127e76126cc565b5b81356127f8848260208601612791565b91505092915050565b6000806000806080858703121561281b5761281a61230b565b5b600061282987828801612561565b945050602061283a87828801612561565b935050604061284b878288016124ac565b925050606085013567ffffffffffffffff81111561286c5761286b612310565b5b612878878288016127d3565b91505092959194509250565b6000806040838503121561289b5761289a61230b565b5b60006128a985828601612561565b92505060206128ba85828601612561565b9150509250929050565b7f4e487b7100000000000000000000000000000000000000000000000000000000600052602260045260246000fd5b6000600282049050600182168061290b57607f821691505b60208210810361291e5761291d6128c4565b5b50919050565b7f4552433732313a20617070726f76656420717565727920666f72206e6f6e657860008201527f697374656e7420746f6b656e0000000000000000000000000000000000000000602082015250565b6000612980602c836123db565b915061298b82612924565b604082019050919050565b600060208201905081810360008301526129af81612973565b9050919050565b7f4552433732313a20617070726f76616c20746f2063757272656e74206f776e6560008201527f7200000000000000000000000000000000000000000000000000000000000000602082015250565b6000612a126021836123db565b9150612a1d826129b6565b604082019050919050565b60006020820190508181036000830152612a4181612a05565b9050919050565b7f4552433732313a20617070726f76652063616c6c6572206973206e6f74206f7760008201527f6e6572206e6f7220617070726f76656420666f7220616c6c0000000000000000602082015250565b6000612aa46038836123db565b9150612aaf82612a48565b604082019050919050565b60006020820190508181036000830152612ad381612a97565b9050919050565b7f416c6c20746865204e465427732068617665206265656e20616c72656164792060008201527f6d696e7465640000000000000000000000000000000000000000000000000000602082015250565b6000612b366026836123db565b9150612b4182612ada565b604082019050919050565b60006020820190508181036000830152612b6581612b29565b9050919050565b7f4572726f722c20796f752073686f756c642073656e6420302e31204574686572600082015250565b6000612ba26020836123db565b9150612bad82612b6c565b602082019050919050565b60006020820190508181036000830152612bd181612b95565b9050919050565b7f4e487b7100000000000000000000000000000000000000000000000000000000600052601160045260246000fd5b6000612c128261248b565b9150612c1d8361248b565b9250827fffffffffffffffffffffffffffffffffffffffffffffffffffffffffffffffff03821115612c5257612c51612bd8565b5b828201905092915050565b7f4552433732313a207472616e736665722063616c6c6572206973206e6f74206f60008201527f776e6572206e6f7220617070726f766564000000000000000000000000000000602082015250565b6000612cb96031836123db565b9150612cc482612c5d565b604082019050919050565b60006020820190508181036000830152612ce881612cac565b9050919050565b7f455243373231456e756d657261626c653a206f776e657220696e646578206f7560008201527f74206f6620626f756e6473000000000000000000000000000000000000000000602082015250565b6000612d4b602b836123db565b9150612d5682612cef565b604082019050919050565b60006020820190508181036000830152612d7a81612d3e565b9050919050565b7f455243373231456e756d657261626c653a20676c6f62616c20696e646578206f60008201527f7574206f6620626f756e64730000000000000000000000000000000000000000602082015250565b6000612ddd602c836123db565b9150612de882612d81565b604082019050919050565b60006020820190508181036000830152612e0c81612dd0565b9050919050565b7f4e487b7100000000000000000000000000000000000000000000000000000000600052603260045260246000fd5b7f4552433732313a206f776e657220717565727920666f72206e6f6e657869737460008201527f656e7420746f6b656e0000000000000000000000000000000000000000000000602082015250565b6000612e9e6029836123db565b9150612ea982612e42565b604082019050919050565b60006020820190508181036000830152612ecd81612e91565b9050919050565b7f4552433732313a2062616c616e636520717565727920666f7220746865207a6560008201527f726f206164647265737300000000000000000000000000000000000000000000602082015250565b6000612f30602a836123db565b9150612f3b82612ed4565b604082019050919050565b60006020820190508181036000830152612f5f81612f23565b9050919050565b7f4f776e61626c653a2063616c6c6572206973206e6f7420746865206f776e6572600082015250565b6000612f9c6020836123db565b9150612fa782612f66565b602082019050919050565b60006020820190508181036000830152612fcb81612f8f565b9050919050565b7f4552433732314d657461646174613a2055524920717565727920666f72206e6f60008201527f6e6578697374656e7420746f6b656e0000000000000000000000000000000000602082015250565b600061302e602f836123db565b915061303982612fd2565b604082019050919050565b6000602082019050818103600083015261305d81613021565b9050919050565b600081905092915050565b600061307a826123d0565b6130848185613064565b93506130948185602086016123ec565b80840191505092915050565b60006130ac828561306f565b91506130b8828461306f565b91508190509392505050565b7f4f776e61626c653a206e6577206f776e657220697320746865207a65726f206160008201527f6464726573730000000000000000000000000000000000000000000000000000602082015250565b60006131206026836123db565b915061312b826130c4565b604082019050919050565b6000602082019050818103600083015261314f81613113565b9050919050565b7f4552433732313a206d696e7420746f20746865207a65726f2061646472657373600082015250565b600061318c6020836123db565b915061319782613156565b602082019050919050565b600060208201905081810360008301526131bb8161317f565b9050919050565b7f4552433732313a20746f6b656e20616c7265616479206d696e74656400000000600082015250565b60006131f8601c836123db565b9150613203826131c2565b602082019050919050565b60006020820190508181036000830152613227816131eb565b9050919050565b7f4552433732313a206f70657261746f7220717565727920666f72206e6f6e657860008201527f697374656e7420746f6b656e0000000000000000000000000000000000000000602082015250565b600061328a602c836123db565b91506132958261322e565b604082019050919050565b600060208201905081810360008301526132b98161327d565b9050919050565b7f4552433732313a207472616e736665722066726f6d20696e636f72726563742060008201527f6f776e6572000000000000000000000000000000000000000000000000000000602082015250565b600061331c6025836123db565b9150613327826132c0565b604082019050919050565b6000602082019050818103600083015261334b8161330f565b9050919050565b7f4552433732313a207472616e7366657220746f20746865207a65726f2061646460008201527f7265737300000000000000000000000000000000000000000000000000000000602082015250565b60006133ae6024836123db565b91506133b982613352565b604082019050919050565b600060208201905081810360008301526133dd816133a1565b9050919050565b60006133ef8261248b565b91506133fa8361248b565b92508282101561340d5761340c612bd8565b5b828203905092915050565b7f4552433732313a20617070726f766520746f2063616c6c657200000000000000600082015250565b600061344e6019836123db565b915061345982613418565b602082019050919050565b6000602082019050818103600083015261347d81613441565b9050919050565b7f4552433732313a207472616e7366657220746f206e6f6e20455243373231526560008201527f63656976657220696d706c656d656e7465720000000000000000000000000000602082015250565b60006134e06032836123db565b91506134eb82613484565b604082019050919050565b6000602082019050818103600083015261350f816134d3565b9050919050565b60006135218261248b565b91507fffffffffffffffffffffffffffffffffffffffffffffffffffffffffffffffff820361355357613552612bd8565b5b600182019050919050565b7f4e487b7100000000000000000000000000000000000000000000000000000000600052601260045260246000fd5b60006135988261248b565b91506135a38361248b565b9250826135b3576135b261355e565b5b828204905092915050565b60006135c98261248b565b91506135d48361248b565b9250826135e4576135e361355e565b5b828206905092915050565b600081519050919050565b600082825260208201905092915050565b6000613616826135ef565b61362081856135fa565b93506136308185602086016123ec565b6136398161241f565b840191505092915050565b60006080820190506136596000830187612520565b6136666020830186612520565b61367360408301856125b6565b8181036060830152613685818461360b565b905095945050505050565b60008151905061369f81612341565b92915050565b6000602082840312156136bb576136ba61230b565b5b60006136c984828501613690565b91505092915050565b7f4e487b7100000000000000000000000000000000000000000000000000000000600052603160045260246000fdfea2646970667358221220e82f84f635c6959437919d9a695947e7fed4003a7112fdad971584bd168f34f164736f6c634300080d0033",
  "immutableReferences": {
    "2071": [
      {
        "length": 32,
        "start": 2304
      },
      {
        "length": 32,
        "start": 3754
      }
    ],
    "2074": [
      {
        "length": 32,
        "start": 2199
      },
      {
        "length": 32,
        "start": 4077
      }
    ]
  },
  "source": "// SPDX-License-Identifier: MIT\npragma solidity ^0.8.13;\n\nimport \"openzeppelin-solidity/contracts/access/Ownable.sol\";\nimport \"openzeppelin-solidity/contracts/token/ERC721/extensions/ERC721Enumerable.sol\";\n\ncontract Berenu is ERC721Enumerable, Ownable {\n  \n  uint256 public currentSupply;\n  string public baseURI;\n\n  uint256 public immutable price = 0.1 ether;\n  uint256 public immutable maxSupply = 5;\n  \n  constructor(string memory _name, string memory _symbol) ERC721 (_name, _symbol) {\n    currentSupply = 0;\n    // baseURI = _baseURI;\n  }\n\n  function hello() external pure returns (string memory) {\n    return \"HELLO\";\n  }\n\n  function mint() external payable {\n    require(ERC721Enumerable.totalSupply() < maxSupply, \"All the NFT's have been already minted\");\n    require(msg.value == price, \"Error, you should send 0.1 Ether\");\n\n    currentSupply += 1;\n\n    _mint(msg.sender, currentSupply);\n  }\n}",
  "sourcePath": "/Users/belen/Documents/Bi/portfolio/minting-dapp/backend/contracts/Berenu.sol",
  "compiler": {
    "name": "solc",
    "version": "0.8.13+commit.abaa5c0e.Emscripten.clang"
  },
  "schemaVersion": "3.4.5",
  "updatedAt": "2022-05-19T15:30:00.886Z",
  "devdoc": {
    "kind": "dev",
    "methods": {
      "approve(address,uint256)": {
        "details": "See {IERC721-approve}."
      },
      "balanceOf(address)": {
        "details": "See {IERC721-balanceOf}."
      },
      "getApproved(uint256)": {
        "details": "See {IERC721-getApproved}."
      },
      "isApprovedForAll(address,address)": {
        "details": "See {IERC721-isApprovedForAll}."
      },
      "name()": {
        "details": "See {IERC721Metadata-name}."
      },
      "owner()": {
        "details": "Returns the address of the current owner."
      },
      "ownerOf(uint256)": {
        "details": "See {IERC721-ownerOf}."
      },
      "renounceOwnership()": {
        "details": "Leaves the contract without owner. It will not be possible to call `onlyOwner` functions anymore. Can only be called by the current owner. NOTE: Renouncing ownership will leave the contract without an owner, thereby removing any functionality that is only available to the owner."
      },
      "safeTransferFrom(address,address,uint256)": {
        "details": "See {IERC721-safeTransferFrom}."
      },
      "safeTransferFrom(address,address,uint256,bytes)": {
        "details": "See {IERC721-safeTransferFrom}."
      },
      "setApprovalForAll(address,bool)": {
        "details": "See {IERC721-setApprovalForAll}."
      },
      "supportsInterface(bytes4)": {
        "details": "See {IERC165-supportsInterface}."
      },
      "symbol()": {
        "details": "See {IERC721Metadata-symbol}."
      },
      "tokenByIndex(uint256)": {
        "details": "See {IERC721Enumerable-tokenByIndex}."
      },
      "tokenOfOwnerByIndex(address,uint256)": {
        "details": "See {IERC721Enumerable-tokenOfOwnerByIndex}."
      },
      "tokenURI(uint256)": {
        "details": "See {IERC721Metadata-tokenURI}."
      },
      "totalSupply()": {
        "details": "See {IERC721Enumerable-totalSupply}."
      },
      "transferFrom(address,address,uint256)": {
        "details": "See {IERC721-transferFrom}."
      },
      "transferOwnership(address)": {
        "details": "Transfers ownership of the contract to a new account (`newOwner`). Can only be called by the current owner."
      }
    },
    "version": 1
  },
  "userdoc": {
    "kind": "user",
    "methods": {},
    "version": 1
  }
}